:100000000C943D000C94F1020C9426030C942603EE
:100010000C9426030C9426030C9426030C942603BC
:100020000C9426030C9426030C9426030C949A013A
:100030000C9426030C9426030C9426030C9426039C
:100040000C9426030C9426030C94E9010C942603CB
:100050000C9413030C9426030C9426030C9426038F
:100060000C9426030C9426030100016B80016B01A4
:100070006C00065A016C016D800011241FBECFEF89
:10008000D8E0DEBFCDBFE8E6F0E040E017C0B591B4
:10009000A59135912591059107FD0CC0959185910C
:1000A000EF01F92FE82F05900D92A217B307D9F7AA
:1000B000FE0104C01D92A217B307E1F7E937F40768
:0E00C00031F70E9446010C940803F894FFCF1C
:1000CE002A2A2A2A2A2A2A2A2A20416D6F6E204C91
:1000DE00696E6B202A2A2A2A2A2A2A2A2A0D0A66B9
:0200EE006600AA
:1000F0000F931F93CF93DF93CDB7DEB7C456D109CB
:100100000FB6F894DEBF0FBECDBF8C01FE01319655
:1001100084E6DF011D928A95E9F7F801808180333A
:1001200009F040C081818133A9F480E3898394E39D
:100130009A839CE29B838C838D8399E39E8396E3D1
:100140009F838887898786E68A878B87CE01019679
:100150000E94B402D80111968C91823379F480E325
:10016000898394E39A839CE29B838C838D8386E6C8
:100170008E838F83CE0101960E94B402F8018181A3
:10018000833321F580E3898384E38A838CE28B8344
:1001900083E08C8386E68D838E83CE0101960E9458
:1001A000B40214C0813329F4CE0101960E94B40236
:1001B0000DC0823329F4CE0101960E94B40206C01C
:1001C000833321F4CE0101960E94B402CC59DF4F53
:1001D0000FB6F894DEBF0FBECDBFDF91CF911F9158
:0401E0000F910895DE
:1001E4008230F9F08330B9F1813009F04CC04423F6
:1001F40061F025B181E090E0062E02C0880F991FBE
:100204000A94E2F7822B85B90CC025B181E090E015
:10021400062E02C0880F991F0A94E2F78095822364
:1002240085B9442361F028B181E090E0062E02C034
:10023400880F991F0A94E2F7822B88B90CC028B161
:1002440081E090E0062E02C0880F991F0A94E2F71D
:100254008095822388B9442359F02BB181E090E042
:1002640002C0880F991F6A95E2F7822B8BB9089513
:100274002BB181E090E002C0880F991F6A95E2F7E4
:08028400809582238BB90895D7
:10028C00CF93DF93CDB7DEB7A2970FB6F894DEBF4E
:10029C000FBECDBF2FEF81EE94E0215080409040F7
:1002AC00E1F700C000000E94330280936B012EEC3A
:1002BC0030E040E082E2F901DE011196742F0E94D9
:1002CC00E402CE0101960E94B40280916B0181116F
:1002DC000EC090916901913051F49091660191306A
:1002EC0031F440E062E081E00E94F200EECF811137
:1002FC00ECCF80916901813041F7809166018111C9
:10030C00E4CF40E061E081E00E94F2002FEF83ED4A
:10031C0090E3215080409040E1F700C0000083E062
:08032C000E94650286B1D1CFE9
:100334001F920F920FB60F9211242F933F934F9356
:100344005F936F937F938F939F93AF93BF93EF9339
:10035400FF9380916901811115C080916A018E31EA
:1003640050F081E08093690110926A0141E060E0FD
:100374000E94F20007C08F5F80936A0160E081E011
:100384000E948D0280916701813081F4809168011F
:100394008E3128F0109267011092680107C08F5FB8
:1003A4008093680160E081E00E948D02FF91EF91EB
:1003B400BF91AF919F918F917F916F915F914F9179
:0E03C4003F912F910F900FBE0F901F90189534
:1003D2001F920F920FB60F9211242F933F934F93B8
:1003E2005F936F937F938F939F93AF93BF93EF939B
:1003F200FF938091C6008093000120916C01822FAF
:1004020090E0FC01EF5FFE4F3081363689F4309187
:100412000001363669F420910001FC01EE5FFE4FC7
:10042200208310926C0182E091E00E94780009C062
:1004320030910001FC01EE5FFE4F30832F5F20936D
:100442006C01FF91EF91BF91AF919F918F917F913D
:100452006F915F914F913F912F910F900FBE0F902F
:040462001F9018953A
:1004660084B18F6284B917B88AB1886D8AB941E0C0
:1004760061E081E00E94F20041E062E081E00E94DA
:10048600F2000E94D00287E690E00E94FD020E94E0
:10049600230341E064E083E00E94F20040E066E06E
:1004A60083E00E94F20041E063E083E00E94F200F4
:1004B60041E067E083E00E94F200109266017894C2
:0404C60080E0089535
:1004CA00CF93DF93C82F83E08A95F1F7000040E0CD
:1004DA006C2F83E00E94F20083E08A95F1F7000016
:1004EA0087E00E941D0383E08A95F1F700008FEFF1
:1004FA000E941D03D82F83E08A95F1F7000041E09E
:10050A006C2F83E00E94F2008D2FDF91CF91089526
:10051A00823079F08330C1F0813001F525B181E074
:10052A0090E0062E02C0880F991F0A94E2F78227EC
:10053A0085B928B181E090E0062E02C0880F991F84
:10054A000A94E2F7822788B92BB181E090E002C0D1
:0E055A00880F991F6A95E2F782278BB90895E2
:10056800BC0120E030E014C0FB01E20FF31F408122
:10057800463631F4FB01E20FF31F8181863659F0CC
:100588009091C00095FFFCCF4093C6002F5F3F4F6E
:08059800243631054CF30895EF
:1005A000E1E8F0E080818860808388EA91E69093BA
:1005B000890080938800AFE6B0E08C9182608C93D4
:0805C0008081836080830895AF
:1005C800992777FD05C005900D920197E1F70895E9
:0A05D80001900D920197E1F70895DC
:1005E2001F920F920FB60F921124F89478940F90E5
:0805F2000FBE0F901F90189539
:1005FA009093C5008093C40088ED8093C10086E083
:06060A008093C200089578
:10061000EC010E942B030E942A03CE010E942C03AE
:06062000CE010E94280338
:100626001F920F920FB60F9211240F900FBE0F90CC
:040636001F90189564
:0C063A008EBD0DB407FEFDCF8EB50895F7
:0606460083E58CBD089560
:04064C000C9400000A
:040650000E9465009F
:02065400089507
:02065600089505
:02065800089503
:01065A00019E
:00000001FF
